:1008A500BEAFB8E6B3ACB9E3D0D6B5205400D5BCDD
:1008B500BFD5B1C83A00B5B1C7B0B5CDD3DAE3D02D
:1008C500D6B55400B7E7C9C8D7B4CCAC3A20CDA348
:1008D500D6B90054206E6F773A00563A00C9E8B68B
:1008E500A8CEC2B6C8543A000000000000000000BF
:1008F50000000000000000000000000000000000F3
:1009050000000000000000000000000000000000E2
:1009150000000000000000000000000000000000D2
:1009250000000000000000000000000000000000C2
:1009350000000000000000000000000000000000B2
:1009450000000000000000000000000000000000A2
:100955000000000000000000000000000000000191
:1009650080000000000000000000000000000003FF
:10097500C0000000000000000000000000000007AB
:10098500E000000000000000000000000000000F73
:10099500F000000000000000000000000000001F43
:1009A500F800000000000000000000000000003F0B
:1009B500FC00000000000000000000000000007BBB
:1009C500DE0000000000000000000000000000F351
:1009D500CF0000000000000000000000000001E35F
:1009E500C78000000000000000000000000003C3F5
:1009F500C3C0000000000000000000000000030369
:100A0500C0C000000000000000000000000000035E
:100A1500C00000000000000000000000000000030E
:100A2500C0000000000000000000000000000003FE
:100A3500C0000000000000000000000000000003EE
:100A4500C0000000000000000000000000000003DE
:100A5500C0000000000000000000000000000003CE
:100A6500C0000000000000000000000000000003BE
:100A7500C0000000000000000000000000000003AE
:100A8500C0000000000000000000000000000000A1
:100A95000000000000000000000000000000000051
:100AA5000000000000000000000000000000000041
:100AB5000000000000000000000000000000000031
:100AC5000000000000000000000000000000000021
:100AD5000000000000000000000000000000000011
:080AE500000000000000000009
:100F4200043E809088980139000149500121000235
:100F52003A00000222000008310050003C00280044
:100F620014012E00082400000000000000000146C9
:090F720007022C000102470000F7
:100F0100120015120374C3EF955DFDEE955CFC12A2
:020F1100033BA0
:100F13008F638E628D618C60E4FFFEFDFCAB63AA80
:100F230062A961A8601202AC4009AF63AE62AD6111
:0F0F3300AC6022AF63AE62AD61AC6012032522E9
:10105800D3EF9400EE6480948040090000EF1F7085
:04106800EF1E80EC0B
:01106C002261
:10100D007C037DE812040ED3EF9400EE648094808F
:0A101D00400800EF1F70F01E80ED88
:0110270022A6
:100CFE00121082120FEE120E99121097120E18E5A4
:100D0E0080540325E02431F8E6F52F08E6F530E5AA
:100D1E002D452C60EA120E187542008F4385432B29
:100D2E00C3E5309543E52F95424007E4F547F54876
:100D3E008006754700754801E590C41313135401DE
:100D4E00FFBF01147F011210727F327E001210421B
:100D5E00120E991204838006120E99120AEDE4F512
:100D6E002CF52DF54CE54CC3940750937425254C6A
:0E0D7E00F8E6FF7424254CF8A607054C80E724
:100E1800C2AF1210827FCC120F7C7F44120F7C125B
:100E280010827FCC120F7C7FBE120F7C120FCC8FEA
:100E380053120FCCEFF54DE553F54EAC4DAD4EE4E6
:100E480012033BE4FBFA7980783D1201068F528E3B
:100E5800518D508C4F1203748E4D8F4EAC4DAD4E4C
:100E6800E412033BA804A905AA06AB07AF52AE518A
:100E7800AD50AC4F120011E4FBFAF9783F1202AC06
:100E880060025008054EE54E7002054DD2AFAF4ED8
:010E98002237
:100AED00C2AFE4FDFF1210D6E54845477BFF6042DB
:100AFD007A0879A5120FA7E4FD7F011210D67BFFAE
:100B0D007A0879B3120FA7C374649549FBE4940076
:100B1D00FA7C007D0AAF03FE1204208F4D7C007D10
:100B2D000AAF03AE02121028E54E2430FF12103228
:100B3D0080177A0879BB120FA7E4FD7F011210D63A
:100B4D007BFF7A0879C9120FA7AE42AF437C007DB7
:100B5D000A1204208F4DAE42AF437C007D0A120471
:100B6D00208D4EE4FD7F031210D67BFF7A0879D8D5
:100B7D00120FA77D037F031210D612102DE54E2400
:100B8D0030FF1210327F201210327F20121032AE41
:100B9D0022AF237C007D0A1204208F4DAE22AF239D
:100BAD007C007D0A1204208D4E7D057F031210D628
:100BBD007BFF7A0879DF120FA77D067F031210D60F
:100BCD0012102DE54E2430FF121032E4FD7F02127B
:100BDD0010D67BFF7A0879E2120FA77D057F0212EE
:100BED0010D6AE2FAF307C007D0A1204208F4DAE93
:100BFD002FAF307C007D0A121028E54E2430FF12F5
:040C0D001032D2AF20
:010C110022C0
:10109700D2AFD28CD2A9D2A8D288758901758CFC1F
:0410A700758A18220C
:030003000210BD2B
:0D10BD00C0E0053BE53B7002053AD0E03293
:03000B00020C12D2
:100C1200C0E0C0F0C0D075D000C000C004C005C0A4
:030C220006C00702
:100C2500758CFC758A18E5484547601EE539C394FF
:100C3500645004C290800BD290E53975F0648485C8
:100C4500F039E5492539F539800875495075390078
:100C5500C290E54564E87004E54464036003020C52
:100C6500E5F544F545AE3AAF3BFC7D3C12040E0C70
:100C75007D681204208E228F23753A00753B00C3D0
:100C8500E5439530FFE542952FFE7C007D28120453
:100C95000EAC42AD431204207C007D28120420EDE9
:100CA50004F521FF7E00D3E5239FE5229E400EE556
:100CB500496025E5484547601F15498018C3E52368
:100CC5009FE5229E5012E549C39464500BE54845C3
:100CD5004760050549753900752C00752D0180089B
:080CE5000545E54570020544D8
:100CED00D007D006D005D004D000D0D0D0F0D0E0C1
:010CFD0032C4
:10048300E4F552F5537F34121072754D0774242529
:100493004DF8E670030207C71313543FFFC3741FDD
:1004A3009FF551FF7E008E5CF55DE54D640770039B
:1004B3000207B8C3E54E9FFDE49EFC12033BE4FB39
:1004C300FA7980784112020F8F598E588D578C56C6
:1004D300E4F54FE54FC3941040030207B8AC4FE473
:1004E300120340AB59AA58A957A856120106120382
:1004F300748E5E8F5F854F54AC4FE4120340AB594B
:10050300AA58A957A856120106C004C005C006C0C0
:1005130007AC5EAD5FEC12033BA804A905AA06ABCA
:1005230007D007D006D005D004120011120F13E430
:10053300FBFAF9783F1202ACAC4FE450351203409A
:10054300AB59AA58A957A856120106C004C005C042
:1005530006C007AC51E4120340D003D002D001D04F
:1005630000120F01120374EF2401F55BE43EF55A08
:10057300802E120340AB59AA58A957A85612010658
:10058300C004C005C006C007AC51E4120340D00349
:10059300D002D001D000120F011203748E5A8F5B68
:1005A300E55B455A60030206B80554AC548012E576
:1005B3005B455A703CE554C3941050350554AC5414
:1005C300E4120340AB59AA58A957A856120106C012
:1005D30004C005C006C007AC51E4120340D003D0E9
:1005E30002D001D000120F011203748E5A8F5B8068
:1005F300BEE55D2480FF12107212106DE554D39492
:10060300085025854F55E555C395545016C37407B7
:100613009555FFF87401088002C333D8FC42520594
:100623005580E3AF520206AAE54FC39408402D85D7
:100633004F55E555C39554501AE5555407FFC374F8
:10064300079FFFF87401088002C333D8FC425305A7
:100653005580DFE4FF121032AF53804B854F55E5D1
:1006630055C394085016C374079555FFF8740108D1
:100673008002C333D8FC4252055580E3755508E523
:1006830055C39554501AE5555407FFC374079FFF8C
:10069300F87401088002C333D8FC4253055580DF48
:1006A300AF52121032AF53121032E4F552F55385A4
:1006B300544F0204D6755001D3E550955BE55A6457
:1006C30080F87480984003020784E4FFFEFDFCABCE
:1006D30059AA58A957A8561202AC604740457E0054
:1006E300E55D2550FFEE355CFED3EF954E7480F843
:1006F3006E98502FE550255D2480FF121072121062
:100703006DE54FC394084005E4FF121032E54F54E2
:1007130007FFC374079FFFF87401088002C333D82F
:10072300FC8055E4FFFEFDFCAB59AA58A957A85617
:100733001202AC5047C3E55D9550FFE55C9400FEA3
:10074300C3EF954E7480F86E984031E55D95502463
:1007530080FF12107212106DE54FC394084005E438
:10076300FF121032E54F5407FFC374079FFFF8745D
:1007730001088002C333D8FCFF1210320550020671
:10078300BBE4FFFEFDFCAB59AA58A957A8561202B9
:10079300AC600E400CE55D255BFFE55C355AFE80E1
:1007A3000BC3E55D955BFFE55C955AFE8E5C8F5D43
:1007B300054F0204D685514E154DE54DC3940140B6
:1007C30003020490E52A604BE52BD3952A4044E4C9
:1007D300F54D12106D7F88121072E4F54E75F0100E
:1007E300E54DA424EDF582E5F03408F583E5822593
:1007F3004EF582E43583F583E493FF121032054E00
:10080300E54EC3941040D6054DE54DC3942040C238
:1008130002089BE52A605CE52BC3952A5055E4F555
:100823004D12106D7F88121072E4F54EC3741F953C
:100833004DFFE49400FEEFC4F8540FC868FFEEC404
:1008430054F048FE74ED2FF58274083EF583E5827B
:10085300254EF582E43583F583E493FF12103205C8
:100863004EE54EC3941040C4054DE54DC39420405E
:10087300B08025754D0812106D7F88121072E4F553
:100883004E7FAA121032054EE54EC3941040F20576
:100893004DE54DC3941840DE7F361210727F30024F
:0208A3001072D1
:100E9900C2AF7F34121072E4F54DE54D2480FF1284
:100EA90010727F80121072E4F54EE4FF12103205C1
:100EB9004EE54EC3941040F2054DE54DC3942040D4
:100EC900D9E4F54DE54D2480FF1210727F88121088
:100ED90072E4F54EE4FF121032054EE54EC394104C
:100EE90040F2054DE54DC3942040D97F361210726A
:070EF9007F30121072D2AF2E
:010F000022CE
:1010AB0075A0FFC291D292D293AFA0C293EF20E76B
:0110BB00F63E
:0110BC002211
:05106D00E54D2480FFA9
:10107200AE071210ABC291C2928EA0D293C293223B
:0A1028001204208D4EE54D2430FF28
:10103200AE071210ABD291C2928EA0D293C293226B
:0A10D600743E2FF8E62DFF021072A1
:100FA7008B4F8A508951AB4FAA50A9511203F56054
:100FB700130551E5517002055014F91203F5FF129C
:050FC700103280E2225F
:100FEE00C2947F057E00121042D2947F301210728E
:0F0FFE007F0C1210727F061210727F01021072A8
:0B10CA00EFD39400400500001F80F5EC
:0110D50022F8
:10104200AD07AC06ED1DAE0470011C4E60077F6457
:061052001210CA80EF221B
:10108200D2837F0A1210CAC2837F3C1210CAD28353
:051092007F180210CAE6
:020F7C00AE07BE
:100F7E007D08EE30E00DC2830000D2837F06121092
:100F8E00CA800BC2837F061210CAD2830000EEC342
:090F9E0013FEDDDE7F030210CA20
:100FCC00E4FD7E08C2830000D283EDC313FDA2832F
:100FDC0092003083034305807F061210CADEE5AF12
:010FEC0005FF
:010FED0022E1
:10000E000203E0E86480F8E933E83360110460F03D
:10001E00ED33EC337009E8FCE9FDEAFEEBFF220458
:10002E0060DED3EB9FEA9EE99DE8C2E78CF0C2F753
:10003E0095F0400CE8CCF8E9CDF9EACEFAEBCFFB1F
:10004E001203AB85D0F05804700320D5B3E80470CA
:10005E00075002B2D50203EA92D5EC0460F7E4CC65
:10006E00C0E0C398F8603B94186008400DD0E0FBE8
:10007E000203C2E4FBFAC9FC8028E830E406E4C9B6
:10008E00FBE4CAFCE830E305E4C9CACBFCE854073C
:10009E006010F8C3E913F9EA13FAEB13FBEC13FC47
:1000AE00D8F130F52FC3E49CFCEF9BFFEE9AFEEDEA
:1000BE0099FDD0E0FBEF4E4D4C701222DB03020394
:1000CE00E7EC2CFCEF33FFEE33FEED33FDED30E7C6
:1000DE00EB0203C2EF2BFFEE3AFEED39FDD0E0FB53
:1000EE0050130BBB00030203EAED13FDEE13FEEFFC
:0800FE0013FFEC13FC0203C226
:10010600EC4D6011E8497017ED33EC3304600DE4F3
:10011600FCFFFEFD22E933E8330470F80203E01227
:1001260003AB58046009E4CC248150062850090228
:1001360003EA2840030203E7C0E0EB4A7044B980B3
:1001460006D0E0FB0203D6EF4E701CBD8008EBFF25
:10015600EAFEE9FD80EBE98DF0A4FEE5F00201EF91
:10016600E9CDF9EAFEEBFFEF89F0A4FCE5F0CE89D4
:10017600F0A42EFFE435F0CD89F0A42DFEE435F091
:100186008067EF4E7005BD80D780C3EF8BF0A4ACBF
:10019600F0EE8BF0A42CFCE435F0F8EF8AF0A42CFA
:1001A600E5F038FCE433CB8DF0A42CFCE5F03BF80D
:1001B600EE8AF0A42CFCE5F038F8E433CF89F0A4FD
:1001C6002CFCE5F038CF3400CE89F0A42FFFE5F003
:1001D6003EFEE433C98DF0A42EFEE5F039CD8AF05B
:1001E600A42FFFE5F03EFEE43DFD33D0E0FB5007D3
:1001F6000BBB000F0203EAEC2CFCEF33FFEE33FEE1
:06020600ED33FD0203C20E
:10020C000203EAEC5D046005E8590470030203E0A4
:10021C001203AB580460F6EC4860F2EC7004FDFE7F
:10022C00FF22C860DB2481C85009C39860025006C5
:10023C000203E79850CAF582E9294B4A7005AB8254
:10024C000203D675F0007C1A7880C3EF9BEE9AED12
:10025C0099400DC3EF9BFFEE9AFEED99FDE842F03D
:10026C00DC23ACF0D0E0FFD0E0FED0E0FDAB822090
:10027C00E7101BEB60BAEC2CFCEF33FFEE33FEED1A
:10028C0033FD0203C2E803F830E705C0F075F00057
:10029C00EF2FFFEE33FEED33FD40B830E7C280AAFE
:1002AC0074F8CC6480CCC86480C8F58204604FC3F9
:1002BC00EB9FF5F0EA9E42F0E99D42F0E89C45F098
:1002CC00603C501DE5825FFFE582D313CB5BCBF422
:1002DC002B5582FB50280ABA002409B9002008804B
:1002EC001DE5825BFBE582D313CF5FCFF4C3132FE5
:1002FC005582FF50090EBE00050DBD00010CC3EB6D
:10030C009FF5F0EA9E42F0E99D42F0E89C45F060D2
:09031C0007CC4820E701B3EC22F4
:10032500ED33EC33600A047003BD8004ECB2E7FCE6
:0103350022A5
:1003360075F020800E75F010800575F0087D007E42
:10034600007F003392D530D503120475EC3340108C
:10035600EF33FFEE33FEED33FDEC33FCD5F0ED224B
:0E036600E5F0247EA2D513CC92E7CDCEFF2287
:10037400EDD2E7CD33EC3392D524814006E4FFFE81
:10038400FDFC22FCE4CFCECDCC24E0501174FF80E0
:10039400EDC3CC13CCCD13CDCE13CECF13CF04707D
:0703A400F030D5DE02047504
:1003AB00E9D2E7C933E833F892D5EDD2E7CD33EC98
:0703BB0033FC5002B2D52211
:1003C200EC30E7100FBF000C0EBE00080DBD00049C
:1003D2000BEB6014A2D5EB13FCED92E7FD2274FF48
:1003E200FCFDFEFF22E480F8A2D574FF13FC7D80A1
:0303F200E480EFB5
:03000000020D8C62
:0C0D8C00787FE4F6D8FD758163020DD37A
:1003F500BB010689828A83E0225002E722BBFE0206
:09040500E32289828A83E4932238
:10040E00EF8DF0A4A8F0CF8CF0A428CE8DF0A42E02
:02041E00FE22BC
:10042000BC000BBE0029EF8DF084FFADF022E4CCC0
:10043000F875F008EF2FFFEE33FEEC33FCEE9DEC89
:10044000984005FCEE9DFE0FD5F0E9E4CEFD22EDCF
:10045000F8F5F0EE8420D21CFEADF075F008EF2F19
:10046000FFED33FD4007985006D5F0F222C398FD0A
:050470000FD5F0EA22A7
:0E047500C3E49FFFE49EFEE49DFDE49CFC2298
:100D9800020CFEE493A3F8E493A34003F68001F267
:100DA80008DFF48029E493A3F85407240CC8C3335C
:100DB800C4540F4420C8834004F456800146F6DF2B
:100DC800E4800B0102040810204080900F42E47E6A
:100DD800019360BCA3FF543F30E509541FFEE49320
:100DE800A360010ECF54C025E060A840B8E493A3E7
:100DF800FAE493A3F8E493A3C8C582C8CAC583CA12
:100E0800F0A3C8C582C8CAC583CADFE9DEE780BEC9
:010F7B000075
:00000001FF
